:040000008A11112828
:10000800FE00030E83120313DF000408E0000A0851
:10001800E1007F08E2008A15692A8A15032A7530EB
:1000280084008A114E278A1183160313DB0073306C
:1000380084008A114E278A115B04831203138700F8
:10004800773084008A114E278A118600831603139D
:10005800E401E5016508803AFF0080307F02031D56
:10006800372807306402031C3A283B283D28EA2831
:10007800EA2883160313E201E3016308803AFF00CC
:1000880080307F02031D4A2808306202031C4D2875
:100098004E28502875287528033083160313DD0071
:1000A8008A30DC005630DB00DB0B5828DC0B582884
:1000B800DD0B58285F28013083160313E207031865
:1000C800E30A0030E3076308803AFF0080307F02CC
:1000D800031D702808306202031C732874285028F6
:1000E8007528063083160313DB005B08BF0064081D
:1000F800DC005C072B3E84008A114E278A11C00061
:100108008A114E278A11C1006408DD005D07023E8E
:100118002B3E84008A114E278A11C2008A114E276D
:100128008A11C3006408DE005E073B3E84008A1122
:100138004E278A11C4008A114E278A11C500640807
:10014800DF005F07023E3B3E84008A114E278A117A
:10015800C6008A114E278A11C7006408E0006007AC
:100168004B3E84008A114E278A11C8008A114E27F7
:100178008A11C9006408E1006107023E4B3E840011
:100188008A114E278A11CA008A114E278A11CB007C
:100198001C30CC000030CD0007308A1103258A11AD
:1001A800013083160313E4070318E50A0030E50756
:1001B8006508803AFF0080307F02031DE52807307C
:1001C8006402031CE828E9283D28EA2808000630CC
:1001D80083160313DB005B08BF000630AD00003058
:1001E800AE008A1546238A11831603133508B00119
:1001F800B0073408AF01AF078A1575248A11831632
:1002080003132D08DC005C072B3E84008A114E275F
:100218008A11C0008A114E278A11C1000630AD002C
:100228000030AE008A1546238A1183160313350859
:10023800B001B0073408AF01AF078A1575248A11D9
:10024800831603132D08DD005D072B3E84008A11F9
:100258004E278A11C2008A114E278A11C300063020
:10026800AD000030AE008A1546238A1183160313A9
:100278003508B001B0073408AF01AF078A157524F7
:100288008A11831603132D08DE005E073B3E8400A7
:100298008A114E278A11C4008A114E278A11C50077
:1002A8000630AD000030AE008A1546238A11831649
:1002B80003133508B001B0073408AF01AF078A153A
:1002C80075248A11831603132D08DF005F073B3E50
:1002D80084008A114E278A11C6008A114E278A1176
:1002E800C7000630AD000030AE008A1546238A11DB
:1002F800831603133508B001B0073408AF01AF0700
:100308008A1575248A11831603132D08E0006007E7
:100318004B3E84008A114E278A11C8008A114E2745
:100328008A11C9000630AD000030AE008A15462398
:100338008A11831603133508B001B0073408AF01DA
:10034800AF078A1575248A11831603132D08E10057
:1003580061074B3E84008A114E278A11CA008A1110
:100368004E278A11CB001E30CC000030CD0007305C
:100378008A1103258A110800063083120313CD0061
:100388004D08B1000630A0000030A1008A155025A4
:100398008A11831203132708A301A3072608A201C1
:1003A800A2078A150D248A11831203132008CE0090
:1003B8004E072B3E84008A114E278A11B2008A11FB
:1003C8004E278A11B3000630A0000030A1008A151C
:1003D80050258A11831203132708A301A3072608AF
:1003E800A201A2078A150D248A118312031320087B
:1003F800CF004F072B3E84008A114E278A11B40084
:100408008A114E278A11B5000630A0000030A100DD
:100418008A1550258A11831203132708A301A307FD
:100428002608A201A2078A150D248A118312031334
:100438002008D00050073B3E84008A114E278A11BD
:10044800B6008A114E278A11B7000630A000003086
:10045800A1008A1550258A11831203132708A301C6
:10046800A3072608A201A2078A150D248A11831260
:1004780003132008D10051073B3E84008A114E2700
:100488008A11B8008A114E278A11B9000630A000D7
:100498000030A1008A1550258A11831203132708FA
:1004A800A301A3072608A201A2078A150D248A1111
:1004B800831203132008D20052074B3E84008A118E
:1004C8004E278A11BA008A114E278A11BB000630BE
:1004D800A0000030A1008A1550258A118312031349
:1004E8002708A301A3072608A201A2078A150D243D
:1004F8008A11831203132008D30053074B3E84004C
:100508008A114E278A11BC008A114E278A11BD0014
:100518001E30BE000030BF0007308A11C8258A117E
:100528000800753084008A114E278A11831203133C
:10053800CD00733084008A114E278A114D0487003C
:10054800773084008A114E278A118600D601D70198
:100558005708803AFF0080307F02031DB52A073014
:100568005602031CB82AB92ABB2A682B682B8312A7
:100578000313D401D5015508803AFF0080307F026B
:10058800031DC82A08305402031CCB2ACC2ACE2AC1
:10059800F32AF32A033083120313CF008A30CE00E4
:1005A8005630CD00CD0BD62ACE0BD62ACF0BD62A65
:1005B800DD2A013083120313D4070318D50A00304B
:1005C800D5075508803AFF0080307F02031DEE2AC8
:1005D80008305402031CF12AF22ACE2AF32A0630E4
:1005E80083120313CD004D08B1005608CE004E0704
:1005F8002B3E84008A114E278A11B2008A114E2799
:100608008A11B3005608CF004F07023E2B3E8400E4
:100618008A114E278A11B4008A114E278A11B50013
:100628005608D00050073B3E84008A114E278A1195
:10063800B6008A114E278A11B7005608D100510713
:10064800023E3B3E84008A114E278A11B8008A1167
:100658004E278A11B9005608D20052074B3E840033
:100668008A114E278A11BA008A114E278A11BB00B7
:100678005608D3005307023E4B3E84008A114E278A
:100688008A11BC008A114E278A11BD001C30BE0099
:100698000030BF0007308A11C8258A110130831243
:1006A8000313D6070318D70A0030D7075708803A2C
:1006B800FF0080307F02031D632B07305602031CA6
:1006C800662B672BBB2A682B08000630831603139A
:1006D800AD000030AE008A1546238A118316031335
:1006E8003508B001B0073408AF01AF078A15752483
:1006F8008A11831603132D08DF005F073B3E840031
:100708008A114E278A11E0008A114E278A11E100CA
:100718000630DF005F08BF005C08C101C1075B0845
:10072800C001C0070030C2000030C3000030C40060
:100738000030C5006108C701C7076008C601C607C1
:100748005E08C901C9075D08C801C8070030CA00AA
:100758000030CB001430CC000030CD0007308A11B7
:1007680003258A11063083160313AD000030AE004E
:100778008A1546238A11831603133508B001B0077A
:100788003408AF01AF078A1575248A11831603133D
:100798002D08DF005F072B3E84008A114E278A113F
:1007A800E2008A114E278A11E3000630AD000030BE
:1007B800AE008A1546238A11831603133508B00143
:1007C800B0073408AF01AF078A1575248A1183165C
:1007D80003132D08DF005F074B3E84008A114E2764
:1007E8008A11E4008A114E278A11E5000630DF00DD
:1007F8005F08BF000030C0000030C1006308C301BB
:10080800C3076208C201C2076108C501C5076008BD
:10081800C401C4070030C6000030C7000030C8005B
:100828000030C9006508CB01CB076408CA01CA07B4
:100838001430CC000030CD0007308A1103258A110E
:10084800831603136308DC01DC076208DB01DB079E
:100858006508DE01DE076408DD01DD078A1169230A
:100868008A110800063083120313A0000030A1008B
:100878008A1550258A11831203132708A301A30799
:100888002608A201A2078A150D248A1183120313D0
:100898002008D10051073B3E84008A114E278A1157
:1008A800D2008A114E278A11D3000630D100510890
:1008B800B1004E08B301B3074D08B201B2070030CA
:1008C800B4000030B5000030B6000030B70053085F
:1008D800B901B9075208B801B8075008BB01BB07EE
:1008E8004F08BA01BA070030BC000030BD00143010
:1008F800BE000030BF0007308A11C8258A110630B3
:1009080083120313A0000030A1008A1550258A1114
:10091800831203132708A301A3072608A201A2072D
:100928008A150D248A11831203132008D100510758
:100938002B3E84008A114E278A11D4008A114E2733
:100948008A11D5000630A0000030A1008A15502574
:100958008A11831203132708A301A3072608A201FB
:10096800A2078A150D248A11831203132008D100C7
:1009780051074B3E84008A114E278A11D6008A11EE
:100988004E278A11D7000630D1005108B100003037
:10099800B2000030B3005508B501B5075408B401DA
:1009A800B4075308B701B7075208B601B6070030B5
:1009B800B8000030B9000030BA000030BB0057085A
:1009C800BD01BD075608BC01BC071430BE0000308D
:1009D800BF0007308A11C8258A11831203135508EE
:1009E800CE01CE075408CD01CD075708D001D00756
:1009F8005608CF01CF078A1136248A1108008316BA
:100A08000313D800D901DA015A08803AFF00803070
:100A18007F02031D112D15305902031C142D152DAD
:100A2800172DC72DC72D83160313D201D301A22D6D
:100A38008316031340084404CE00580884004E0867
:100A4800831380004808CE003F0884004E088000C9
:100A5800D401D5013E2D033083160313CE00CE0BEF
:100A6800332D013083160313D4070318D50A003039
:100A7800D5073E2D5903FF3ACE004E07283E013ECA
:100A880084008A114E278A11CF008A114E278A11B5
:100A9800D0005508803AD1005008803A5102031D11
:100AA800572D4F085402031C5A2D5B2D2F2D5C2DFA
:100AB8008316031342084604CE00580884004E08E3
:100AC800831380004A08CE003F0884004E08800047
:100AD800D601D7017E2D033083160313CE00CE0B2B
:100AE800732D013083160313D6070318D70A003075
:100AF800D7077E2D5908CE004E07013E84008A1183
:100B08004E278A11CF008A114E278A11D000570824
:100B1800803AD1005008803A5102031D952D4F08A4
:100B28005602031C982D992D6F2D9A2D013083168E
:100B38000313D2070318D30A0030D3075308803AA7
:100B4800CE004D08803A4E02031DAC2D4C085202CF
:100B5800031CAF2DB02D1C2DB12D013083160313AE
:100B6800D9070318DA0A0030DA075A08803AFF0072
:100B780080307F02031DC22D15305902031CC52D7C
:100B8800C62D172DC72D080083120313CA00CB01E9
:100B9800CC014C08803AFF0080307F02031DD62D1F
:100BA80015304B02031CD92DDA2DDC2D8C2E8C2E02
:100BB80083120313C401C501672E8312031332087D
:100BC8003604C0004A0884004008831380003A08AD
:100BD800C0003108840040088000C601C701032E08
:100BE800033083120313C000C00BF82D01308312A9
:100BF8000313C6070318C70A0030C707032E4B03A1
:100C0800FF3AC0004007283E013E84008A114E2763
:100C18008A11C1008A114E278A11C2004708803AFA
:100C2800C3004208803A4302031D1C2E41084602B5
:100C3800031C1F2E202EF42D212E8312031334089B
:100C48003804C0004A0884004008831380003C0828
:100C5800C0003108840040088000C801C901432E43
:100C6800033083120313C000C00B382E01308312E7
:100C78000313C8070318C90A0030C907432E4B08D5
:100C8800C0004007013E84008A114E278A11C10026
:100C98008A114E278A11C2004908803AC3004208C7
:100CA800803A4302031D5A2E41084802031C5D2E58
:100CB8005E2E342E5F2E013083120313C4070318EF
:100CC800C50A0030C5074508803AC0003F08803A89
:100CD8004002031D712E3E084402031C742E752E1B
:100CE800E12D762E013083120313CB070318CC0AAB
:100CF8000030CC074C08803AFF0080307F02031D8B
:100D0800872E15304B02031C8A2E8B2EDC2D8C2E41
:100D18000800063083160313DB005B08BF00C830E9
:100D2800AD000030AE008A1546238A1183160313DE
:100D38003508B001B0073408AF01AF078A1575242C
:100D48008A11831603132E08C101C1072D08C0019B
:100D5800C007C830AD000030AE008A1546238A119E
:100D6800831603133508B001B0073408AF01AF0785
:100D78008A1575248A11831603132E08C301C30725
:100D88002D08C201C2070730AD000030AE008A1539
:100D980046238A11831603133508B001B0073408B7
:100DA800AF01AF078A1575248A11831603132E081D
:100DB800C501C5072D08C401C4070730AD000030C0
:100DC800AE008A1546238A11831603133508B0012D
:100DD800B0073408AF01AF078A1575248A11831646
:100DE80003132E08C701C7072D08C601C6077030B0
:100DF800AD000030AE008A1546238A11831603130E
:100E08003508B001B0073408AF01AF078A1575245B
:100E18008A11831603132E08C901C9072D08C801B2
:100E2800C8077030AD000030AE008A1546238A111D
:100E3800831603133508B001B0073408AF01AF07B4
:100E48008A1575248A11831603132E08CB01CB0744
:100E58002D08CA01CA073230AD000030AE008A152D
:100E680046238A11831603133508B001B0073408E6
:100E7800AF01AF078A1575248A11831603132E084C
:100E8800CD01CD072D08CC01CC0707308A110325E9
:100E98008A11080007308A000408840A820700348F
:100EA8000034003401340034023400340334003494
:100EB8000434003405340034063400340734003474
:100EC80008340034093400340A3400340B34003454
:100ED8000C3400340D3400340E3400340F34003434
:100EE8001034003411340034123400341334003414
:100EF800143400348034003440340034083400346E
:100F0800C03400344834003488340034C8340034E1
:100F180080340034043400340234003401340034A2
:100F28000634003403340034053400340734003404
:100F38000434003440340034203400341034003495
:100F480060340034303400345234003470340034A7
:100F58004034003408340034013400341034003490
:100F6800483400340334003430340034403400341E
:100F7800023400342034003488340034053400341A
:100F880050340034803400340434003440340034A5
:100F9800C83400340734003470340034C0340034AA
:100FA8000634003460340034831203136308F000FD
:100FB8007007FE3E3B3E84008A114E278A11F100DD
:100FC8006308F2007207FE3E2B3E84008A114E270A
:100FD8008A11710487006308F0007007FE3E4B3EDB
:0C0FE80084008A114E278A118600080040
:1013D600700883160313EB007108EC00ED01EE01B3
:1013E600EF010314EF0D0800831603132008EB002A
:1013F6002108EC00ED01EE01EF010314EF0D0800EA
:10140600E301E40183160313EB01EC01ED01EE01A8
:10141600EF0183018A15852E8312031799019A011C
:101426009E019F018316031381018B170B170B1661
:101436000430850086018701831203138501860126
:10144600870108008312031799019A019E019F01E3
:101456008316031381018B170B170B1604308500B7
:10146600860187018312031385018601870108001F
:1014760083120313630883160313A0002007FE3E9E
:101486003B3E84008A114E278A15A100831203135E
:10149600630883160313A2002207FE3E2B3E840038
:1014A6008A114E278A1521048312031387006308C5
:1014B60083160313A0002007FE3E4B3E84008A11CC
:1014C6004E278A1583120313860008008B1C6C2A8C
:1014D6006D2AA32A870186016308013EE30064089A
:1014E6000318013E003EE4000C3063066404031D4D
:1014F6007D2A7E2A812AE301E401812A8230DE00E8
:10150600DD30DD00DD0B852ADE0B852A8A2A831273
:1015160003130508982A8230DE00DD30DD00DD0B7E
:10152600922ADE0B922A972A982A83120313051D04
:101536009D2A9E2A8E2A8B108A15CE258A15A32AC5
:10154600831203136208FF0061088A0060088400A2
:101556005F0E8300FE0E7E0E09000030FC00003098
:10156600FB000030FA000030F900B92A701CBC2AD2
:10157600BD2AD52A7408F907750803110318013E18
:101586000319C62AFA07760803110318013E031940
:10159600CD2AFB07770803110318013E0319D42A45
:1015A600FC07D52A0130F8000310F40DF50DF60DF1
:1015B600F70DF80BD72A01300310F30CF20CF10CDF
:1015C600F00CFF3E031DDF2A7308720471047004D9
:1015D600031DEE2AEF2AB92AF02A7C08F3007B08BD
:1015E600F2007A08F1007908F000F92A08000030C4
:1015F60083160313AC000030AB000030AA000030A5
:10160600A900052B201C082B092B212B2408A90730
:10161600250803110318013E0319122BAA072608F1
:1016260003110318013E0319192BAB0727080311F1
:101636000318013E0319202BAC07212B0130A8000B
:101646000310A40DA50DA60DA70DA80B232B013085
:101656000310A30CA20CA10CA00CFF3E031D2B2B08
:101666002308220421042004031D3A2B3B2B052BBF
:101676003C2B2C08A3002B08A2002A08A10029084D
:10168600A000452B080083160313EF08031D4C2BFF
:101696004D2B542B0130A0000030A1008A15F721F4
:1016A6008A15393083160313B6003030B700003080
:1016B600B8000030B9006E08A3006D08A2006C08DF
:1016C600A1006B08A0004130A700C630A6004E302E
:1016D600A5006D30A4008A15FA228A158316031315
:1016E6002008B60721080318210F7A2B7B2BB70792
:1016F60022080318220F802B812BB8072308031812
:10170600230AB9073908EE003808ED003708EC005F
:101716003608EB006B08BA006C08BB006D08BC000D
:101726006E08BD001030BE003D0DBD0CBC0CBB0CE0
:10173600BA0CBE0B972BFF303A05B4007F303B0541
:10174600B500A52B0800753084008A114E278A152E
:10175600F000793084008A114E278A1570048312AE
:10176600031387007D3084008A114E278A15860070
:101776000330F2008A30F1005630F000F00BC12B36
:10178600F10BC12BF20BC12BC82B693084008A11D7
:101796004E278A15F000733084008A114E278A1569
:1017A6007004831203138700773084008A114E2752
:1017B6008A1586000330F2008A30F1005630F000B8
:1017C600F00BE32BF10BE32BF20BE32BEA2B7B3035
:1017D60084008A114E278A15F000673084008A112A
:1017E6004E278A1570048312031387006B3084001A
:1017F6008A114E278A1586000330F2008A30F100DE
:101806005630F000F00B052CF10B052CF20B052CD5
:101816000C2C080083120313A501A31F132C142CF0
:101826001D2CA209A309A20A0319A30AA5010314E0
:10183600A50D1D2CA11F202C212C272CA009A109A8
:10184600A00A0319A10A272C2108200403192C2C0D
:101856002D2C632CA4010314A40D3D2C0130031080
:10186600A00DA10DFF3E031D322C0130FD007D08A9
:10187600A4073D2CA11F402C412C312C432C432C7A
:1018860021082302031D492C20082202031C4C2C8C
:101896004D2C542C2008A2022108031CA303A302EA
:1018A600542C01300310A10CA00CFF3E031D552C37
:1018B6000130A402031D602C612C432C632C632C85
:1018C6002508031D672C6D2CA209A309A20A03197A
:1018D600A30A6D2C2308A101A1072208A001A007D5
:1018E600742C080083160313B301B01F7B2C7C2CC9
:1018F600852CAF09B009AF0A0319B00AB301031466
:10190600B30D852CAE1F882C892C8F2CAD09AE0902
:10191600AD0A0319AE0A8F2C2E082D040319942C38
:10192600952CCB2CB2010314B20DA52C013003105B
:10193600AD0DAE0DFF3E031D9A2C0130B1003108EE
:10194600B207A52CAE1FA82CA92C992CAB2CAB2C1E
:101956002E083002031DB12C2D082F02031CB42CB7
:10196600B52CBC2C2D08AF022E08031CB003B00208
:10197600BC2C01300310AE0CAD0CFF3E031DBD2C7C
:101986000130B202031DC82CC92CAB2CCB2CCB2C9E
:101996003308031DCF2CD52CAF09B009AF0A0319A4
:1019A600B00AD52C3008AE01AE072F08AD01AD0741
:1019B600DC2C0800753084008A114E278A158316A0
:1019C6000313A000793084008A114E278A1520045B
:1019D6008312031387007D3084008A114E278A15EF
:1019E6008600033083160313A2008A30A100563006
:1019F600A000A00BFC2CA10BFC2CA20BFC2C032D95
:101A0600693084008A114E278A1583160313A000B5
:101A1600733084008A114E278A152004831203131B
:101A26008700773084008A114E278A158600033096
:101A360083160313A2008A30A1005630A000A00B23
:101A4600222DA10B222DA20B222D292D7B308400C5
:101A56008A114E278A1583160313A0006730840067
:101A66008A114E278A1520048312031387006B30D0
:101A760084008A114E278A158600033083160313C5
:101A8600A2008A30A1005630A000A00B482DA10B61
:101A9600482DA20B482D4F2D080083160313EF087F
:101AA600031D562D572D5E2D0130F0000030F1003C
:101AB6008A15EB218A15393083120313A8003030BA
:101AC600A9000030AA000030AB00831603136E088D
:101AD600F3006D08F2006C08F1006B08F00041306D
:101AE600F700C630F6004E30F5006D30F4008A156A
:101AF600B0228A15700883120313A8077108031809
:101B0600710F862D872DA90772080318720F8C2D69
:101B16008D2DAA0773080318730AAB072B088316C3
:101B26000313EE00831203132A0883160313ED0032
:101B360083120313290883160313EC00831203137D
:101B4600280883160313EB006B0883120313AC00FB
:101B5600831603136C0883120313AD008316031355
:101B66006D0883120313AE00831603136E088312E7
:101B76000313AF001030B0002F0DAF0CAE0CAD0C40
:101B8600AC0CB00BBF2DFF302C05A6007F302D0509
:101B9600A700CD2D08008A150F228A15D72DD72D1F
:101BA6008A1195228A15D72D8312031364086304BC
:101BB6000319DE2DDF2DD32DE52DE52D8A11D8272E
:101BC6008A15E52D83120313640863040319EC2DAB
:101BD600ED2D4B2E00306402083003196302031CFE
:101BE600F52DF62DE12D4B2E4B2E4B2E0630A0005B
:101BF6000030A1008A1550258A1583120313270881
:101C0600A301A3072608A201A2078A150D248A1597
:101C1600831203132008D80058072B3E84008A112C
:101C26004E278A15D9008A114E278A15DA00063002
:101C3600A0000030A1008A1550258A1583120313CF
:101C46002708A301A3072608A201A2078A150D24C7
:101C56008A15831203132008D80058074B3E8400C8
:101C66008A114E278A15DB008A114E278A15DC0059
:101C76005A08CE01CE075908CD01CD075C08D00120
:101C8600D0075B08CF01CF078A1136248A154B2E61
:101C9600083083120313630664040319532E542E6B
:101CA600F92D5A2E5A2E8A15A6238A155A2E093030
:101CB60083120313630664040319622E632E562EE1
:101CC600692E692E8A11C0218A15692E0A3083125F
:101CD6000313630664040319712E722E652E782E83
:101CE600782E8A153F278A15782E0B308312031318
:101CF600630664040319802E812E742ED72DD72DEA
:101D0600D72D08008A1525228A158E2E8E2E8A1129
:101D160013208A158E2E8312031364086304031995
:101D2600952E962E8A2E9C2E9C2E8A153B228A153F
:101D36009C2E83120313640863040319A32EA42E96
:101D4600042F00306402083003196302031CAC2E12
:101D5600AD2E982E042F042F042F0630831603135E
:101D6600AD000030AE008A1546238A15831603138C
:101D76003508B001B0073408AF01AF078A157524DE
:101D86008A15831603132D08E60066072B3E84008A
:101D96008A114E278A15E7008A114E278A15E80010
:101DA6000630AD000030AE008A1546238A1583162C
:101DB60003133508B001B0073408AF01AF078A1521
:101DC60075248A15831603132D08E60066074B3E15
:101DD60084008A114E278A15E9008A114E278A1532
:101DE600EA006808DC01DC076708DB01DB076A0834
:101DF600DE01DE076908DD01DD078A1169238A1520
:101E0600042F0830831203136306640403190C2F8E
:101E16000D2FB02E132F132F8A15DD248A15132F9D
:101E26000930831203136306640403191B2F1C2F46
:101E36000F2F222F222F8A11EB208A15222F0A30EC
:101E4600831203136306640403192A2F2B2F1E2FF4
:101E5600312F312F8A118D268A15312F0B3083129F
:101E66000313630664040319392F3A2F2D2F8E2E80
:101E76008E2E8E2E8A111128063083120313CD0062
:101E86004D08B100C830A0000030A1008A155025C9
:101E96008A15831203132708A301A3072608A201A4
:101EA600A2078A150D248A15831203132108B3018C
:101EB600B3072008B201B207C830A0000030A10065
:101EC6008A1550258A15831203132708A301A30731
:101ED6002608A201A2078A150D248A158312031368
:101EE6002108B501B5072008B401B4070730A000E2
:101EF6000030A1008A1550258A158312031327087E
:101F0600A301A3072608A201A2078A150D248A1594
:101F1600831203132108B701B7072008B601B607D5
:101F26000730A0000030A1008A1550258A158312BB
:101F360003132708A301A3072608A201A2078A15EF
:101F46000D248A15831203132108B901B907200845
:101F5600B801B8077030A0000030A1008A155025DE
:101F66008A15831203132708A301A3072608A201D3
:101F7600A2078A150D248A15831203132108BB01B3
:101F8600BB072008BA01BA077030A0000030A100D4
:101F96008A1550258A15831203132708A301A30760
:101FA6002608A201A2078A150D248A158312031397
:101FB6002108BD01BD072008BC01BC073230A000C6
:101FC6000030A1008A1550258A15831203132708AD
:101FD600A301A3072608A201A2078A150D248A15C4
:101FE600831203132108BF01BF072008BE01BE07E5
:0A1FF60007308A11C8258A1508007B
:02400E00C430BC
:00000001FF
